{
  "address": "0xa865234DE628D72d392A984fb75972e52f8D71AC",
  "abi": [
    {
      "inputs": [
        {
          "internalType": "address",
          "name": "escrow",
          "type": "address"
        }
      ],
      "name": "EscrowFactory__AlreadyApproved",
      "type": "error"
    },
    {
      "inputs": [
        {
          "internalType": "address",
          "name": "caller",
          "type": "address"
        }
      ],
      "name": "EscrowFactory__NotAnArbiterOfContract",
      "type": "error"
    },
    {
      "stateMutability": "payable",
      "type": "fallback"
    },
    {
      "inputs": [
        {
          "internalType": "uint256",
          "name": "index",
          "type": "uint256"
        }
      ],
      "name": "approve",
      "outputs": [],
      "stateMutability": "nonpayable",
      "type": "function"
    },
    {
      "inputs": [
        {
          "internalType": "address",
          "name": "_beneficiary",
          "type": "address"
        },
        {
          "internalType": "address",
          "name": "_arbiter",
          "type": "address"
        }
      ],
      "name": "createNewEscrowContract",
      "outputs": [],
      "stateMutability": "payable",
      "type": "function"
    },
    {
      "inputs": [
        {
          "internalType": "uint256",
          "name": "",
          "type": "uint256"
        }
      ],
      "name": "escrowArray",
      "outputs": [
        {
          "internalType": "contract Escrow",
          "name": "",
          "type": "address"
        }
      ],
      "stateMutability": "view",
      "type": "function"
    },
    {
      "inputs": [],
      "name": "getEscrowContracts",
      "outputs": [
        {
          "internalType": "contract Escrow[]",
          "name": "",
          "type": "address[]"
        }
      ],
      "stateMutability": "view",
      "type": "function"
    },
    {
      "stateMutability": "payable",
      "type": "receive"
    }
  ],
  "transactionHash": "0xce52ce7e3fe8b1153313d19f635618c460a4d3b0ea387f47fed9e04a5490dd39",
  "args": [],
  "numDeployments": 1,
  "solcInputHash": "91b3389219dcadeb07cc18f2449b824d",
  "bytecode": "0x608060405234801561001057600080fd5b50610eb4806100206000396000f3fe6080604052600436106100435760003560e01c806329e94cb81461004c5780632f3b703f1461006857806392376e4414610093578063b759f954146100d05761004a565b3661004a57005b005b61006660048036038101906100619190610511565b6100f9565b005b34801561007457600080fd5b5061007d61019f565b60405161008a919061065f565b60405180910390f35b34801561009f57600080fd5b506100ba60048036038101906100b591906106b7565b61022d565b6040516100c791906106f3565b60405180910390f35b3480156100dc57600080fd5b506100f760048036038101906100f291906106b7565b61026c565b005b60003433848460405161010b906104a1565b6101179392919061071d565b6040518091039082f0905080158015610134573d6000803e3d6000fd5b5090506000819080600181540180825580915050600190039060005260206000200160009091909190916101000a81548173ffffffffffffffffffffffffffffffffffffffff021916908373ffffffffffffffffffffffffffffffffffffffff160217905550505050565b6060600080548060200260200160405190810160405280929190818152602001828054801561022357602002820191906000526020600020905b8160009054906101000a900473ffffffffffffffffffffffffffffffffffffffff1673ffffffffffffffffffffffffffffffffffffffff16815260200190600101908083116101d9575b5050505050905090565b6000818154811061023d57600080fd5b906000526020600020016000915054906101000a900473ffffffffffffffffffffffffffffffffffffffff1681565b600080828154811061028157610280610754565b5b9060005260206000200160009054906101000a900473ffffffffffffffffffffffffffffffffffffffff1690503373ffffffffffffffffffffffffffffffffffffffff168173ffffffffffffffffffffffffffffffffffffffff1663fe25e00a6040518163ffffffff1660e01b8152600401602060405180830381865afa158015610310573d6000803e3d6000fd5b505050506040513d601f19601f820116820180604052508101906103349190610798565b73ffffffffffffffffffffffffffffffffffffffff161461038c57336040517fd2ad64b600000000000000000000000000000000000000000000000000000000815260040161038391906107c5565b60405180910390fd5b8073ffffffffffffffffffffffffffffffffffffffff166328f371aa6040518163ffffffff1660e01b8152600401602060405180830381865afa1580156103d7573d6000803e3d6000fd5b505050506040513d601f19601f820116820180604052508101906103fb9190610818565b1561043d57806040517f74c3146c00000000000000000000000000000000000000000000000000000000815260040161043491906107c5565b60405180910390fd5b8073ffffffffffffffffffffffffffffffffffffffff166312424e3f6040518163ffffffff1660e01b8152600401600060405180830381600087803b15801561048557600080fd5b505af1158015610499573d6000803e3d6000fd5b505050505050565b6106398061084683390190565b600080fd5b600073ffffffffffffffffffffffffffffffffffffffff82169050919050565b60006104de826104b3565b9050919050565b6104ee816104d3565b81146104f957600080fd5b50565b60008135905061050b816104e5565b92915050565b60008060408385031215610528576105276104ae565b5b6000610536858286016104fc565b9250506020610547858286016104fc565b9150509250929050565b600081519050919050565b600082825260208201905092915050565b6000819050602082019050919050565b6000819050919050565b60006105a261059d610598846104b3565b61057d565b6104b3565b9050919050565b60006105b482610587565b9050919050565b60006105c6826105a9565b9050919050565b6105d6816105bb565b82525050565b60006105e883836105cd565b60208301905092915050565b6000602082019050919050565b600061060c82610551565b610616818561055c565b93506106218361056d565b8060005b8381101561065257815161063988826105dc565b9750610644836105f4565b925050600181019050610625565b5085935050505092915050565b600060208201905081810360008301526106798184610601565b905092915050565b6000819050919050565b61069481610681565b811461069f57600080fd5b50565b6000813590506106b18161068b565b92915050565b6000602082840312156106cd576106cc6104ae565b5b60006106db848285016106a2565b91505092915050565b6106ed816105bb565b82525050565b600060208201905061070860008301846106e4565b92915050565b610717816104d3565b82525050565b6000606082019050610732600083018661070e565b61073f602083018561070e565b61074c604083018461070e565b949350505050565b7f4e487b7100000000000000000000000000000000000000000000000000000000600052603260045260246000fd5b600081519050610792816104e5565b92915050565b6000602082840312156107ae576107ad6104ae565b5b60006107bc84828501610783565b91505092915050565b60006020820190506107da600083018461070e565b92915050565b60008115159050919050565b6107f5816107e0565b811461080057600080fd5b50565b600081519050610812816107ec565b92915050565b60006020828403121561082e5761082d6104ae565b5b600061083c84828501610803565b9150509291505056fe608060405260405161063938038061063983398181016040528101906100259190610159565b82600260006101000a81548173ffffffffffffffffffffffffffffffffffffffff021916908373ffffffffffffffffffffffffffffffffffffffff16021790555081600160006101000a81548173ffffffffffffffffffffffffffffffffffffffff021916908373ffffffffffffffffffffffffffffffffffffffff160217905550806000806101000a81548173ffffffffffffffffffffffffffffffffffffffff021916908373ffffffffffffffffffffffffffffffffffffffff160217905550346003819055505050506101ac565b600080fd5b600073ffffffffffffffffffffffffffffffffffffffff82169050919050565b6000610126826100fb565b9050919050565b6101368161011b565b811461014157600080fd5b50565b6000815190506101538161012d565b92915050565b600080600060608486031215610172576101716100f6565b5b600061018086828701610144565b935050602061019186828701610144565b92505060406101a286828701610144565b9150509250925092565b61047e806101bb6000396000f3fe608060405234801561001057600080fd5b50600436106100625760003560e01c806312065fe01461006757806312424e3f1461008557806328f371aa1461008f57806338af3eed146100ad578063c7c4ff46146100cb578063fe25e00a146100e9575b600080fd5b61006f610107565b60405161007c91906102d8565b60405180910390f35b61008d610111565b005b61009761023c565b6040516100a4919061030e565b60405180910390f35b6100b561024f565b6040516100c2919061036a565b60405180910390f35b6100d3610275565b6040516100e0919061036a565b60405180910390f35b6100f161029b565b6040516100fe919061036a565b60405180910390f35b6000600354905090565b60004790506000600160009054906101000a900473ffffffffffffffffffffffffffffffffffffffff1673ffffffffffffffffffffffffffffffffffffffff168260405161015e906103b6565b60006040518083038185875af1925050503d806000811461019b576040519150601f19603f3d011682016040523d82523d6000602084013e6101a0565b606091505b50509050806101e4576040517f08c379a00000000000000000000000000000000000000000000000000000000081526004016101db90610428565b60405180910390fd5b7f3ad93af63cb7967b23e4fb500b7d7d28b07516325dcf341f88bebf959d82c1cb60035460405161021591906102d8565b60405180910390a16001600260146101000a81548160ff0219169083151502179055505050565b600260149054906101000a900460ff1681565b600160009054906101000a900473ffffffffffffffffffffffffffffffffffffffff1681565b600260009054906101000a900473ffffffffffffffffffffffffffffffffffffffff1681565b60008054906101000a900473ffffffffffffffffffffffffffffffffffffffff1681565b6000819050919050565b6102d2816102bf565b82525050565b60006020820190506102ed60008301846102c9565b92915050565b60008115159050919050565b610308816102f3565b82525050565b600060208201905061032360008301846102ff565b92915050565b600073ffffffffffffffffffffffffffffffffffffffff82169050919050565b600061035482610329565b9050919050565b61036481610349565b82525050565b600060208201905061037f600083018461035b565b92915050565b600081905092915050565b50565b60006103a0600083610385565b91506103ab82610390565b600082019050919050565b60006103c182610393565b9150819050919050565b600082825260208201905092915050565b7f4661696c656420746f2073656e64204574686572000000000000000000000000600082015250565b60006104126014836103cb565b915061041d826103dc565b602082019050919050565b6000602082019050818103600083015261044181610405565b905091905056fea2646970667358221220a07c734ecea9a65a84d49b842ed5b120ae8df52bd7b9eb1be06a396b791469ea64736f6c63430008110033a26469706673582212204ef3f80b11f2a7b1dd73bee670029ce6e08eba2f52c0eb84f5b1ef711ab0f30b64736f6c63430008110033",
  "devdoc": {
    "author": "Ali Murtaza Memon",
    "custom:portfolio": "This is a portfolio smart contract.",
    "kind": "dev",
    "methods": {
      "approve(uint256)": {
        "details": "users will not be aware of index, it will be handle from frontend side using loops indexes.",
        "params": {
          "index": "an index of smart contract store inside the array."
        }
      },
      "createNewEscrowContract(address,address)": {
        "params": {
          "_arbiter": "an address who will approve the agreement later.",
          "_beneficiary": "an address where the funds will be transfered after approval."
        }
      },
      "getEscrowContracts()": {
        "returns": {
          "_0": "Array of Escrow contracts."
        }
      }
    },
    "title": "EscrowFactory Smart Contract.",
    "version": 1
  },
  "userdoc": {
    "kind": "user",
    "methods": {
      "approve(uint256)": {
        "notice": "This function will be called by arbiter of contract for the approval of agreement between depositer and beneficiary."
      },
      "createNewEscrowContract(address,address)": {
        "notice": "This function will take the beneficiary and arbiter addresses and take the msg.value and create the new Escrow contract using that information."
      },
      "escrowArray(uint256)": {
        "notice": "This array will store Escrow contracts."
      },
      "getEscrowContracts()": {
        "notice": "This function will return the array of Escrow contracts."
      }
    },
    "notice": "This contract will create new Escrow contract and handle the approval of existing contracts.",
    "version": 1
  },
  "storageLayout": {
    "storage": [
      {
        "astId": 116,
        "contract": "contracts/EscrowFactory.sol:EscrowFactory",
        "label": "escrowArray",
        "offset": 0,
        "slot": "0",
        "type": "t_array(t_contract(Escrow)98)dyn_storage"
      }
    ],
    "types": {
      "t_array(t_contract(Escrow)98)dyn_storage": {
        "base": "t_contract(Escrow)98",
        "encoding": "dynamic_array",
        "label": "contract Escrow[]",
        "numberOfBytes": "32"
      },
      "t_contract(Escrow)98": {
        "encoding": "inplace",
        "label": "contract Escrow",
        "numberOfBytes": "20"
      }
    }
  }
}