{
  "address": "0x5FbDB2315678afecb367f032d93F642f64180aa3",
  "abi": [
    {
      "inputs": [
        {
          "internalType": "address",
          "name": "escrow",
          "type": "address"
        }
      ],
      "name": "EscrowFactory__AlreadyApproved",
      "type": "error"
    },
    {
      "inputs": [
        {
          "internalType": "address",
          "name": "owner",
          "type": "address"
        }
      ],
      "name": "EscrowFactory__EscrowContractExistWithThisAddress",
      "type": "error"
    },
    {
      "inputs": [
        {
          "internalType": "address",
          "name": "owner",
          "type": "address"
        }
      ],
      "name": "EscrowFactory__NoContractFound",
      "type": "error"
    },
    {
      "inputs": [],
      "name": "approve",
      "outputs": [],
      "stateMutability": "nonpayable",
      "type": "function"
    },
    {
      "inputs": [
        {
          "internalType": "address",
          "name": "_depositor",
          "type": "address"
        },
        {
          "internalType": "address",
          "name": "_beneficiary",
          "type": "address"
        }
      ],
      "name": "createNewEscrowContract",
      "outputs": [],
      "stateMutability": "payable",
      "type": "function"
    },
    {
      "inputs": [
        {
          "internalType": "uint256",
          "name": "",
          "type": "uint256"
        }
      ],
      "name": "escrowArray",
      "outputs": [
        {
          "internalType": "contract Escrow",
          "name": "",
          "type": "address"
        }
      ],
      "stateMutability": "view",
      "type": "function"
    },
    {
      "inputs": [],
      "name": "getEscrowArrayLength",
      "outputs": [
        {
          "internalType": "uint256",
          "name": "",
          "type": "uint256"
        }
      ],
      "stateMutability": "view",
      "type": "function"
    },
    {
      "inputs": [
        {
          "internalType": "address",
          "name": "arbiter",
          "type": "address"
        }
      ],
      "name": "isArbiterContractApproved",
      "outputs": [
        {
          "internalType": "bool",
          "name": "",
          "type": "bool"
        }
      ],
      "stateMutability": "view",
      "type": "function"
    },
    {
      "inputs": [
        {
          "internalType": "address",
          "name": "",
          "type": "address"
        }
      ],
      "name": "ownerToContractIndex",
      "outputs": [
        {
          "internalType": "uint256",
          "name": "",
          "type": "uint256"
        }
      ],
      "stateMutability": "view",
      "type": "function"
    }
  ],
  "transactionHash": "0x280e74ae1f4550242e538f50d25a1a103cd7f5564c0a06510555f3540f614bb5",
  "args": [],
  "numDeployments": 1,
  "solcInputHash": "3b6d91c3b4b7a066e2a03fcf825405eb",
  "bytecode": "0x608060405234801561001057600080fd5b506110a8806100206000396000f3fe6080604052600436106200005c5760003560e01c806312424e3f146200006157806329e94cb8146200007b57806392376e44146200009b578063b5401dcf14620000df578063d4f29cd0146200010f578063e7b2a8951462000153575b600080fd5b3480156200006e57600080fd5b506200007962000197565b005b62000099600480360381019062000093919062000738565b620003d0565b005b348015620000a857600080fd5b50620000c76004803603810190620000c19190620007ba565b62000549565b604051620000d6919062000857565b60405180910390f35b348015620000ec57600080fd5b50620000f762000589565b60405162000106919062000885565b60405180910390f35b3480156200011c57600080fd5b506200013b6004803603810190620001359190620008a2565b62000596565b6040516200014a919062000885565b60405180910390f35b3480156200016057600080fd5b506200017f6004803603810190620001799190620008a2565b620005ae565b6040516200018e9190620008f1565b60405180910390f35b60008060003373ffffffffffffffffffffffffffffffffffffffff1673ffffffffffffffffffffffffffffffffffffffff16815260200190815260200160002054036200021d57336040517f1e2e73e70000000000000000000000000000000000000000000000000000000081526004016200021491906200091f565b60405180910390fd5b60008060003373ffffffffffffffffffffffffffffffffffffffff1673ffffffffffffffffffffffffffffffffffffffff1681526020019081526020016000205490506000600180836200027291906200096b565b81548110620002865762000285620009a6565b5b9060005260206000200160009054906101000a900473ffffffffffffffffffffffffffffffffffffffff1690508073ffffffffffffffffffffffffffffffffffffffff166328f371aa6040518163ffffffff1660e01b8152600401602060405180830381865afa158015620002ff573d6000803e3d6000fd5b505050506040513d601f19601f8201168201806040525081019062000325919062000a06565b156200036a57806040517f74c3146c0000000000000000000000000000000000000000000000000000000081526004016200036191906200091f565b60405180910390fd5b8073ffffffffffffffffffffffffffffffffffffffff166312424e3f6040518163ffffffff1660e01b8152600401600060405180830381600087803b158015620003b357600080fd5b505af1158015620003c8573d6000803e3d6000fd5b505050505050565b60008060003373ffffffffffffffffffffffffffffffffffffffff1673ffffffffffffffffffffffffffffffffffffffff16815260200190815260200160002054146200045657336040517fa48d71300000000000000000000000000000000000000000000000000000000081526004016200044d91906200091f565b60405180910390fd5b6000348383336040516200046a90620006c0565b620004789392919062000a38565b6040518091039082f090508015801562000496573d6000803e3d6000fd5b5090506001819080600181540180825580915050600190039060005260206000200160009091909190916101000a81548173ffffffffffffffffffffffffffffffffffffffff021916908373ffffffffffffffffffffffffffffffffffffffff1602179055506001805490506000803373ffffffffffffffffffffffffffffffffffffffff1673ffffffffffffffffffffffffffffffffffffffff16815260200190815260200160002081905550505050565b600181815481106200055a57600080fd5b906000526020600020016000915054906101000a900473ffffffffffffffffffffffffffffffffffffffff1681565b6000600180549050905090565b60006020528060005260406000206000915090505481565b6000806000808473ffffffffffffffffffffffffffffffffffffffff1673ffffffffffffffffffffffffffffffffffffffff1681526020019081526020016000205490506000600180836200060491906200096b565b81548110620006185762000617620009a6565b5b9060005260206000200160009054906101000a900473ffffffffffffffffffffffffffffffffffffffff1690508073ffffffffffffffffffffffffffffffffffffffff166328f371aa6040518163ffffffff1660e01b8152600401602060405180830381865afa15801562000691573d6000803e3d6000fd5b505050506040513d601f19601f82011682018060405250810190620006b7919062000a06565b92505050919050565b6105fd8062000a7683390190565b600080fd5b600073ffffffffffffffffffffffffffffffffffffffff82169050919050565b60006200070082620006d3565b9050919050565b6200071281620006f3565b81146200071e57600080fd5b50565b600081359050620007328162000707565b92915050565b60008060408385031215620007525762000751620006ce565b5b6000620007628582860162000721565b9250506020620007758582860162000721565b9150509250929050565b6000819050919050565b62000794816200077f565b8114620007a057600080fd5b50565b600081359050620007b48162000789565b92915050565b600060208284031215620007d357620007d2620006ce565b5b6000620007e384828501620007a3565b91505092915050565b6000819050919050565b600062000817620008116200080b84620006d3565b620007ec565b620006d3565b9050919050565b60006200082b82620007f6565b9050919050565b60006200083f826200081e565b9050919050565b620008518162000832565b82525050565b60006020820190506200086e600083018462000846565b92915050565b6200087f816200077f565b82525050565b60006020820190506200089c600083018462000874565b92915050565b600060208284031215620008bb57620008ba620006ce565b5b6000620008cb8482850162000721565b91505092915050565b60008115159050919050565b620008eb81620008d4565b82525050565b6000602082019050620009086000830184620008e0565b92915050565b6200091981620006f3565b82525050565b60006020820190506200093660008301846200090e565b92915050565b7f4e487b7100000000000000000000000000000000000000000000000000000000600052601160045260246000fd5b600062000978826200077f565b915062000985836200077f565b9250828203905081811115620009a0576200099f6200093c565b5b92915050565b7f4e487b7100000000000000000000000000000000000000000000000000000000600052603260045260246000fd5b620009e081620008d4565b8114620009ec57600080fd5b50565b60008151905062000a0081620009d5565b92915050565b60006020828403121562000a1f5762000a1e620006ce565b5b600062000a2f84828501620009ef565b91505092915050565b600060608201905062000a4f60008301866200090e565b62000a5e60208301856200090e565b62000a6d60408301846200090e565b94935050505056fe60806040526040516105fd3803806105fd83398181016040528101906100259190610152565b82600260006101000a81548173ffffffffffffffffffffffffffffffffffffffff021916908373ffffffffffffffffffffffffffffffffffffffff16021790555081600160006101000a81548173ffffffffffffffffffffffffffffffffffffffff021916908373ffffffffffffffffffffffffffffffffffffffff160217905550806000806101000a81548173ffffffffffffffffffffffffffffffffffffffff021916908373ffffffffffffffffffffffffffffffffffffffff1602179055505050506101a5565b600080fd5b600073ffffffffffffffffffffffffffffffffffffffff82169050919050565b600061011f826100f4565b9050919050565b61012f81610114565b811461013a57600080fd5b50565b60008151905061014c81610126565b92915050565b60008060006060848603121561016b5761016a6100ef565b5b60006101798682870161013d565b935050602061018a8682870161013d565b925050604061019b8682870161013d565b9150509250925092565b610449806101b46000396000f3fe608060405234801561001057600080fd5b50600436106100575760003560e01c806312424e3f1461005c57806328f371aa1461006657806338af3eed14610084578063c7c4ff46146100a2578063fe25e00a146100c0575b600080fd5b6100646100de565b005b61006e610207565b60405161007b91906102a5565b60405180910390f35b61008c61021a565b6040516100999190610301565b60405180910390f35b6100aa610240565b6040516100b79190610301565b60405180910390f35b6100c8610266565b6040516100d59190610301565b60405180910390f35b60004790506000600160009054906101000a900473ffffffffffffffffffffffffffffffffffffffff1673ffffffffffffffffffffffffffffffffffffffff168260405161012b9061034d565b60006040518083038185875af1925050503d8060008114610168576040519150601f19603f3d011682016040523d82523d6000602084013e61016d565b606091505b50509050806101b1576040517f08c379a00000000000000000000000000000000000000000000000000000000081526004016101a8906103bf565b60405180910390fd5b7f3ad93af63cb7967b23e4fb500b7d7d28b07516325dcf341f88bebf959d82c1cb826040516101e091906103f8565b60405180910390a16001600260146101000a81548160ff0219169083151502179055505050565b600260149054906101000a900460ff1681565b600160009054906101000a900473ffffffffffffffffffffffffffffffffffffffff1681565b600260009054906101000a900473ffffffffffffffffffffffffffffffffffffffff1681565b60008054906101000a900473ffffffffffffffffffffffffffffffffffffffff1681565b60008115159050919050565b61029f8161028a565b82525050565b60006020820190506102ba6000830184610296565b92915050565b600073ffffffffffffffffffffffffffffffffffffffff82169050919050565b60006102eb826102c0565b9050919050565b6102fb816102e0565b82525050565b600060208201905061031660008301846102f2565b92915050565b600081905092915050565b50565b600061033760008361031c565b915061034282610327565b600082019050919050565b60006103588261032a565b9150819050919050565b600082825260208201905092915050565b7f4661696c656420746f2073656e64204574686572000000000000000000000000600082015250565b60006103a9601483610362565b91506103b482610373565b602082019050919050565b600060208201905081810360008301526103d88161039c565b9050919050565b6000819050919050565b6103f2816103df565b82525050565b600060208201905061040d60008301846103e9565b9291505056fea2646970667358221220d3d33c8ebe58981c8dfba6b65247fe22de880f899b346136b6825984b946872064736f6c63430008110033a26469706673582212207bd4a5dcafe62f6978fea07b18750bf841ac5b24ce2a36184849a2bfeaa0bced64736f6c63430008110033",
  "devdoc": {
    "kind": "dev",
    "methods": {},
    "version": 1
  },
  "userdoc": {
    "kind": "user",
    "methods": {},
    "version": 1
  },
  "storageLayout": {
    "storage": [
      {
        "astId": 93,
        "contract": "contracts/EscrowFactory.sol:EscrowFactory",
        "label": "ownerToContractIndex",
        "offset": 0,
        "slot": "0",
        "type": "t_mapping(t_address,t_uint256)"
      },
      {
        "astId": 97,
        "contract": "contracts/EscrowFactory.sol:EscrowFactory",
        "label": "escrowArray",
        "offset": 0,
        "slot": "1",
        "type": "t_array(t_contract(Escrow)73)dyn_storage"
      }
    ],
    "types": {
      "t_address": {
        "encoding": "inplace",
        "label": "address",
        "numberOfBytes": "20"
      },
      "t_array(t_contract(Escrow)73)dyn_storage": {
        "base": "t_contract(Escrow)73",
        "encoding": "dynamic_array",
        "label": "contract Escrow[]",
        "numberOfBytes": "32"
      },
      "t_contract(Escrow)73": {
        "encoding": "inplace",
        "label": "contract Escrow",
        "numberOfBytes": "20"
      },
      "t_mapping(t_address,t_uint256)": {
        "encoding": "mapping",
        "key": "t_address",
        "label": "mapping(address => uint256)",
        "numberOfBytes": "32",
        "value": "t_uint256"
      },
      "t_uint256": {
        "encoding": "inplace",
        "label": "uint256",
        "numberOfBytes": "32"
      }
    }
  }
}