{
  "address": "0x5FbDB2315678afecb367f032d93F642f64180aa3",
  "abi": [
    {
      "inputs": [
        {
          "internalType": "address",
          "name": "escrow",
          "type": "address"
        }
      ],
      "name": "EscrowFactory__AlreadyApproved",
      "type": "error"
    },
    {
      "inputs": [
        {
          "internalType": "address",
          "name": "owner",
          "type": "address"
        }
      ],
      "name": "EscrowFactory__NoContractFound",
      "type": "error"
    },
    {
      "inputs": [],
      "name": "approve",
      "outputs": [],
      "stateMutability": "nonpayable",
      "type": "function"
    },
    {
      "inputs": [
        {
          "internalType": "address",
          "name": "_depositor",
          "type": "address"
        },
        {
          "internalType": "address",
          "name": "_beneficiary",
          "type": "address"
        }
      ],
      "name": "createNewEscrowContract",
      "outputs": [],
      "stateMutability": "payable",
      "type": "function"
    }
  ],
  "transactionHash": "0xbe624372a71dc55a7ad5d0e7b88cbf3121dc6fd80efd79a29351be16e9d4162a",
  "args": [],
  "numDeployments": 1,
  "solcInputHash": "2bd52d474dcec892128ac6bc7f5f80ef",
  "bytecode": "0x608060405234801561001057600080fd5b50610bbd806100206000396000f3fe6080604052600436106100295760003560e01c806312424e3f1461002e57806329e94cb814610045575b600080fd5b34801561003a57600080fd5b50610043610061565b005b61005f600480360381019061005a91906103e8565b61028a565b005b60008060003373ffffffffffffffffffffffffffffffffffffffff1673ffffffffffffffffffffffffffffffffffffffff16815260200190815260200160002054036100e457336040517f1e2e73e70000000000000000000000000000000000000000000000000000000081526004016100db9190610437565b60405180910390fd5b60008060003373ffffffffffffffffffffffffffffffffffffffff1673ffffffffffffffffffffffffffffffffffffffff168152602001908152602001600020549050600060018083610137919061048b565b81548110610148576101476104bf565b5b9060005260206000200160009054906101000a900473ffffffffffffffffffffffffffffffffffffffff1690508073ffffffffffffffffffffffffffffffffffffffff166328f371aa6040518163ffffffff1660e01b8152600401602060405180830381865afa1580156101c0573d6000803e3d6000fd5b505050506040513d601f19601f820116820180604052508101906101e49190610526565b1561022657806040517f74c3146c00000000000000000000000000000000000000000000000000000000815260040161021d9190610437565b60405180910390fd5b8073ffffffffffffffffffffffffffffffffffffffff166312424e3f6040518163ffffffff1660e01b8152600401600060405180830381600087803b15801561026e57600080fd5b505af1158015610282573d6000803e3d6000fd5b505050505050565b60003483833360405161029c90610378565b6102a893929190610553565b6040518091039082f09050801580156102c5573d6000803e3d6000fd5b5090506001819080600181540180825580915050600190039060005260206000200160009091909190916101000a81548173ffffffffffffffffffffffffffffffffffffffff021916908373ffffffffffffffffffffffffffffffffffffffff1602179055506001805490506000803373ffffffffffffffffffffffffffffffffffffffff1673ffffffffffffffffffffffffffffffffffffffff16815260200190815260200160002081905550505050565b6105fd8061058b83390190565b600080fd5b600073ffffffffffffffffffffffffffffffffffffffff82169050919050565b60006103b58261038a565b9050919050565b6103c5816103aa565b81146103d057600080fd5b50565b6000813590506103e2816103bc565b92915050565b600080604083850312156103ff576103fe610385565b5b600061040d858286016103d3565b925050602061041e858286016103d3565b9150509250929050565b610431816103aa565b82525050565b600060208201905061044c6000830184610428565b92915050565b6000819050919050565b7f4e487b7100000000000000000000000000000000000000000000000000000000600052601160045260246000fd5b600061049682610452565b91506104a183610452565b92508282039050818111156104b9576104b861045c565b5b92915050565b7f4e487b7100000000000000000000000000000000000000000000000000000000600052603260045260246000fd5b60008115159050919050565b610503816104ee565b811461050e57600080fd5b50565b600081519050610520816104fa565b92915050565b60006020828403121561053c5761053b610385565b5b600061054a84828501610511565b91505092915050565b60006060820190506105686000830186610428565b6105756020830185610428565b6105826040830184610428565b94935050505056fe60806040526040516105fd3803806105fd83398181016040528101906100259190610152565b82600260006101000a81548173ffffffffffffffffffffffffffffffffffffffff021916908373ffffffffffffffffffffffffffffffffffffffff16021790555081600160006101000a81548173ffffffffffffffffffffffffffffffffffffffff021916908373ffffffffffffffffffffffffffffffffffffffff160217905550806000806101000a81548173ffffffffffffffffffffffffffffffffffffffff021916908373ffffffffffffffffffffffffffffffffffffffff1602179055505050506101a5565b600080fd5b600073ffffffffffffffffffffffffffffffffffffffff82169050919050565b600061011f826100f4565b9050919050565b61012f81610114565b811461013a57600080fd5b50565b60008151905061014c81610126565b92915050565b60008060006060848603121561016b5761016a6100ef565b5b60006101798682870161013d565b935050602061018a8682870161013d565b925050604061019b8682870161013d565b9150509250925092565b610449806101b46000396000f3fe608060405234801561001057600080fd5b50600436106100575760003560e01c806312424e3f1461005c57806328f371aa1461006657806338af3eed14610084578063c7c4ff46146100a2578063fe25e00a146100c0575b600080fd5b6100646100de565b005b61006e610207565b60405161007b91906102a5565b60405180910390f35b61008c61021a565b6040516100999190610301565b60405180910390f35b6100aa610240565b6040516100b79190610301565b60405180910390f35b6100c8610266565b6040516100d59190610301565b60405180910390f35b60004790506000600160009054906101000a900473ffffffffffffffffffffffffffffffffffffffff1673ffffffffffffffffffffffffffffffffffffffff168260405161012b9061034d565b60006040518083038185875af1925050503d8060008114610168576040519150601f19603f3d011682016040523d82523d6000602084013e61016d565b606091505b50509050806101b1576040517f08c379a00000000000000000000000000000000000000000000000000000000081526004016101a8906103bf565b60405180910390fd5b7f3ad93af63cb7967b23e4fb500b7d7d28b07516325dcf341f88bebf959d82c1cb826040516101e091906103f8565b60405180910390a16001600260146101000a81548160ff0219169083151502179055505050565b600260149054906101000a900460ff1681565b600160009054906101000a900473ffffffffffffffffffffffffffffffffffffffff1681565b600260009054906101000a900473ffffffffffffffffffffffffffffffffffffffff1681565b60008054906101000a900473ffffffffffffffffffffffffffffffffffffffff1681565b60008115159050919050565b61029f8161028a565b82525050565b60006020820190506102ba6000830184610296565b92915050565b600073ffffffffffffffffffffffffffffffffffffffff82169050919050565b60006102eb826102c0565b9050919050565b6102fb816102e0565b82525050565b600060208201905061031660008301846102f2565b92915050565b600081905092915050565b50565b600061033760008361031c565b915061034282610327565b600082019050919050565b60006103588261032a565b9150819050919050565b600082825260208201905092915050565b7f4661696c656420746f2073656e64204574686572000000000000000000000000600082015250565b60006103a9601483610362565b91506103b482610373565b602082019050919050565b600060208201905081810360008301526103d88161039c565b9050919050565b6000819050919050565b6103f2816103df565b82525050565b600060208201905061040d60008301846103e9565b9291505056fea2646970667358221220d3d33c8ebe58981c8dfba6b65247fe22de880f899b346136b6825984b946872064736f6c63430008110033a26469706673582212206128ed90b90553a99ec630f2ff0234a2c384c769170e21701a228de693e7378564736f6c63430008110033",
  "devdoc": {
    "kind": "dev",
    "methods": {},
    "version": 1
  },
  "userdoc": {
    "kind": "user",
    "methods": {},
    "version": 1
  },
  "storageLayout": {
    "storage": [
      {
        "astId": 89,
        "contract": "contracts/EscrowFactory.sol:EscrowFactory",
        "label": "ownerToContractIndex",
        "offset": 0,
        "slot": "0",
        "type": "t_mapping(t_address,t_uint256)"
      },
      {
        "astId": 93,
        "contract": "contracts/EscrowFactory.sol:EscrowFactory",
        "label": "escrowArray",
        "offset": 0,
        "slot": "1",
        "type": "t_array(t_contract(Escrow)73)dyn_storage"
      }
    ],
    "types": {
      "t_address": {
        "encoding": "inplace",
        "label": "address",
        "numberOfBytes": "20"
      },
      "t_array(t_contract(Escrow)73)dyn_storage": {
        "base": "t_contract(Escrow)73",
        "encoding": "dynamic_array",
        "label": "contract Escrow[]",
        "numberOfBytes": "32"
      },
      "t_contract(Escrow)73": {
        "encoding": "inplace",
        "label": "contract Escrow",
        "numberOfBytes": "20"
      },
      "t_mapping(t_address,t_uint256)": {
        "encoding": "mapping",
        "key": "t_address",
        "label": "mapping(address => uint256)",
        "numberOfBytes": "32",
        "value": "t_uint256"
      },
      "t_uint256": {
        "encoding": "inplace",
        "label": "uint256",
        "numberOfBytes": "32"
      }
    }
  }
}