{
  "address": "0x5FbDB2315678afecb367f032d93F642f64180aa3",
  "abi": [
    {
      "inputs": [
        {
          "internalType": "address",
          "name": "escrow",
          "type": "address"
        }
      ],
      "name": "EscrowFactory__AlreadyApproved",
      "type": "error"
    },
    {
      "inputs": [
        {
          "internalType": "address",
          "name": "owner",
          "type": "address"
        }
      ],
      "name": "EscrowFactory__EscrowContractExistWithThisAddress",
      "type": "error"
    },
    {
      "inputs": [
        {
          "internalType": "address",
          "name": "owner",
          "type": "address"
        }
      ],
      "name": "EscrowFactory__NoContractFound",
      "type": "error"
    },
    {
      "stateMutability": "payable",
      "type": "fallback"
    },
    {
      "inputs": [],
      "name": "approve",
      "outputs": [],
      "stateMutability": "nonpayable",
      "type": "function"
    },
    {
      "inputs": [
        {
          "internalType": "address",
          "name": "_depositor",
          "type": "address"
        },
        {
          "internalType": "address",
          "name": "_beneficiary",
          "type": "address"
        }
      ],
      "name": "createNewEscrowContract",
      "outputs": [],
      "stateMutability": "payable",
      "type": "function"
    },
    {
      "inputs": [
        {
          "internalType": "uint256",
          "name": "",
          "type": "uint256"
        }
      ],
      "name": "escrowArray",
      "outputs": [
        {
          "internalType": "contract Escrow",
          "name": "",
          "type": "address"
        }
      ],
      "stateMutability": "view",
      "type": "function"
    },
    {
      "inputs": [],
      "name": "getEscrowArrayLength",
      "outputs": [
        {
          "internalType": "uint256",
          "name": "",
          "type": "uint256"
        }
      ],
      "stateMutability": "view",
      "type": "function"
    },
    {
      "inputs": [
        {
          "internalType": "address",
          "name": "arbiter",
          "type": "address"
        }
      ],
      "name": "isArbiterContractApproved",
      "outputs": [
        {
          "internalType": "bool",
          "name": "",
          "type": "bool"
        }
      ],
      "stateMutability": "view",
      "type": "function"
    },
    {
      "inputs": [
        {
          "internalType": "address",
          "name": "",
          "type": "address"
        }
      ],
      "name": "ownerToContractIndex",
      "outputs": [
        {
          "internalType": "uint256",
          "name": "",
          "type": "uint256"
        }
      ],
      "stateMutability": "view",
      "type": "function"
    },
    {
      "stateMutability": "payable",
      "type": "receive"
    }
  ],
  "transactionHash": "0x0da1d39701ded1c88af1f8475aa3b8e4dd7e04672ab69a1732610b2b2dd5d082",
  "args": [],
  "numDeployments": 1,
  "solcInputHash": "524c55a641d81121cffd3c7e73d045be",
  "bytecode": "0x608060405234801561001057600080fd5b506110b2806100206000396000f3fe608060405260043610620000615760003560e01c806312424e3f146200006b57806329e94cb8146200008557806392376e4414620000a5578063b5401dcf14620000e9578063d4f29cd01462000119578063e7b2a895146200015d5762000069565b366200006957005b005b3480156200007857600080fd5b5062000083620001a1565b005b620000a360048036038101906200009d919062000742565b620003da565b005b348015620000b257600080fd5b50620000d16004803603810190620000cb9190620007c4565b62000553565b604051620000e0919062000861565b60405180910390f35b348015620000f657600080fd5b506200010162000593565b6040516200011091906200088f565b60405180910390f35b3480156200012657600080fd5b506200014560048036038101906200013f9190620008ac565b620005a0565b6040516200015491906200088f565b60405180910390f35b3480156200016a57600080fd5b50620001896004803603810190620001839190620008ac565b620005b8565b604051620001989190620008fb565b60405180910390f35b60008060003373ffffffffffffffffffffffffffffffffffffffff1673ffffffffffffffffffffffffffffffffffffffff16815260200190815260200160002054036200022757336040517f1e2e73e70000000000000000000000000000000000000000000000000000000081526004016200021e919062000929565b60405180910390fd5b60008060003373ffffffffffffffffffffffffffffffffffffffff1673ffffffffffffffffffffffffffffffffffffffff1681526020019081526020016000205490506000600180836200027c919062000975565b8154811062000290576200028f620009b0565b5b9060005260206000200160009054906101000a900473ffffffffffffffffffffffffffffffffffffffff1690508073ffffffffffffffffffffffffffffffffffffffff166328f371aa6040518163ffffffff1660e01b8152600401602060405180830381865afa15801562000309573d6000803e3d6000fd5b505050506040513d601f19601f820116820180604052508101906200032f919062000a10565b156200037457806040517f74c3146c0000000000000000000000000000000000000000000000000000000081526004016200036b919062000929565b60405180910390fd5b8073ffffffffffffffffffffffffffffffffffffffff166312424e3f6040518163ffffffff1660e01b8152600401600060405180830381600087803b158015620003bd57600080fd5b505af1158015620003d2573d6000803e3d6000fd5b505050505050565b60008060003373ffffffffffffffffffffffffffffffffffffffff1673ffffffffffffffffffffffffffffffffffffffff16815260200190815260200160002054146200046057336040517fa48d713000000000000000000000000000000000000000000000000000000000815260040162000457919062000929565b60405180910390fd5b6000348383336040516200047490620006ca565b620004829392919062000a42565b6040518091039082f0905080158015620004a0573d6000803e3d6000fd5b5090506001819080600181540180825580915050600190039060005260206000200160009091909190916101000a81548173ffffffffffffffffffffffffffffffffffffffff021916908373ffffffffffffffffffffffffffffffffffffffff1602179055506001805490506000803373ffffffffffffffffffffffffffffffffffffffff1673ffffffffffffffffffffffffffffffffffffffff16815260200190815260200160002081905550505050565b600181815481106200056457600080fd5b906000526020600020016000915054906101000a900473ffffffffffffffffffffffffffffffffffffffff1681565b6000600180549050905090565b60006020528060005260406000206000915090505481565b6000806000808473ffffffffffffffffffffffffffffffffffffffff1673ffffffffffffffffffffffffffffffffffffffff1681526020019081526020016000205490506000600180836200060e919062000975565b81548110620006225762000621620009b0565b5b9060005260206000200160009054906101000a900473ffffffffffffffffffffffffffffffffffffffff1690508073ffffffffffffffffffffffffffffffffffffffff166328f371aa6040518163ffffffff1660e01b8152600401602060405180830381865afa1580156200069b573d6000803e3d6000fd5b505050506040513d601f19601f82011682018060405250810190620006c1919062000a10565b92505050919050565b6105fd8062000a8083390190565b600080fd5b600073ffffffffffffffffffffffffffffffffffffffff82169050919050565b60006200070a82620006dd565b9050919050565b6200071c81620006fd565b81146200072857600080fd5b50565b6000813590506200073c8162000711565b92915050565b600080604083850312156200075c576200075b620006d8565b5b60006200076c858286016200072b565b92505060206200077f858286016200072b565b9150509250929050565b6000819050919050565b6200079e8162000789565b8114620007aa57600080fd5b50565b600081359050620007be8162000793565b92915050565b600060208284031215620007dd57620007dc620006d8565b5b6000620007ed84828501620007ad565b91505092915050565b6000819050919050565b6000620008216200081b6200081584620006dd565b620007f6565b620006dd565b9050919050565b6000620008358262000800565b9050919050565b6000620008498262000828565b9050919050565b6200085b816200083c565b82525050565b600060208201905062000878600083018462000850565b92915050565b620008898162000789565b82525050565b6000602082019050620008a660008301846200087e565b92915050565b600060208284031215620008c557620008c4620006d8565b5b6000620008d5848285016200072b565b91505092915050565b60008115159050919050565b620008f581620008de565b82525050565b6000602082019050620009126000830184620008ea565b92915050565b6200092381620006fd565b82525050565b600060208201905062000940600083018462000918565b92915050565b7f4e487b7100000000000000000000000000000000000000000000000000000000600052601160045260246000fd5b6000620009828262000789565b91506200098f8362000789565b9250828203905081811115620009aa57620009a962000946565b5b92915050565b7f4e487b7100000000000000000000000000000000000000000000000000000000600052603260045260246000fd5b620009ea81620008de565b8114620009f657600080fd5b50565b60008151905062000a0a81620009df565b92915050565b60006020828403121562000a295762000a28620006d8565b5b600062000a3984828501620009f9565b91505092915050565b600060608201905062000a59600083018662000918565b62000a68602083018562000918565b62000a77604083018462000918565b94935050505056fe60806040526040516105fd3803806105fd83398181016040528101906100259190610152565b82600260006101000a81548173ffffffffffffffffffffffffffffffffffffffff021916908373ffffffffffffffffffffffffffffffffffffffff16021790555081600160006101000a81548173ffffffffffffffffffffffffffffffffffffffff021916908373ffffffffffffffffffffffffffffffffffffffff160217905550806000806101000a81548173ffffffffffffffffffffffffffffffffffffffff021916908373ffffffffffffffffffffffffffffffffffffffff1602179055505050506101a5565b600080fd5b600073ffffffffffffffffffffffffffffffffffffffff82169050919050565b600061011f826100f4565b9050919050565b61012f81610114565b811461013a57600080fd5b50565b60008151905061014c81610126565b92915050565b60008060006060848603121561016b5761016a6100ef565b5b60006101798682870161013d565b935050602061018a8682870161013d565b925050604061019b8682870161013d565b9150509250925092565b610449806101b46000396000f3fe608060405234801561001057600080fd5b50600436106100575760003560e01c806312424e3f1461005c57806328f371aa1461006657806338af3eed14610084578063c7c4ff46146100a2578063fe25e00a146100c0575b600080fd5b6100646100de565b005b61006e610207565b60405161007b91906102a5565b60405180910390f35b61008c61021a565b6040516100999190610301565b60405180910390f35b6100aa610240565b6040516100b79190610301565b60405180910390f35b6100c8610266565b6040516100d59190610301565b60405180910390f35b60004790506000600160009054906101000a900473ffffffffffffffffffffffffffffffffffffffff1673ffffffffffffffffffffffffffffffffffffffff168260405161012b9061034d565b60006040518083038185875af1925050503d8060008114610168576040519150601f19603f3d011682016040523d82523d6000602084013e61016d565b606091505b50509050806101b1576040517f08c379a00000000000000000000000000000000000000000000000000000000081526004016101a8906103bf565b60405180910390fd5b7f3ad93af63cb7967b23e4fb500b7d7d28b07516325dcf341f88bebf959d82c1cb826040516101e091906103f8565b60405180910390a16001600260146101000a81548160ff0219169083151502179055505050565b600260149054906101000a900460ff1681565b600160009054906101000a900473ffffffffffffffffffffffffffffffffffffffff1681565b600260009054906101000a900473ffffffffffffffffffffffffffffffffffffffff1681565b60008054906101000a900473ffffffffffffffffffffffffffffffffffffffff1681565b60008115159050919050565b61029f8161028a565b82525050565b60006020820190506102ba6000830184610296565b92915050565b600073ffffffffffffffffffffffffffffffffffffffff82169050919050565b60006102eb826102c0565b9050919050565b6102fb816102e0565b82525050565b600060208201905061031660008301846102f2565b92915050565b600081905092915050565b50565b600061033760008361031c565b915061034282610327565b600082019050919050565b60006103588261032a565b9150819050919050565b600082825260208201905092915050565b7f4661696c656420746f2073656e64204574686572000000000000000000000000600082015250565b60006103a9601483610362565b91506103b482610373565b602082019050919050565b600060208201905081810360008301526103d88161039c565b9050919050565b6000819050919050565b6103f2816103df565b82525050565b600060208201905061040d60008301846103e9565b9291505056fea2646970667358221220d3d33c8ebe58981c8dfba6b65247fe22de880f899b346136b6825984b946872064736f6c63430008110033a2646970667358221220dada816c3032d64f5dcb0387c596d8b0f67402da70cb3cce20787a378d5ea13664736f6c63430008110033",
  "devdoc": {
    "kind": "dev",
    "methods": {},
    "version": 1
  },
  "userdoc": {
    "kind": "user",
    "methods": {},
    "version": 1
  },
  "storageLayout": {
    "storage": [
      {
        "astId": 93,
        "contract": "contracts/EscrowFactory.sol:EscrowFactory",
        "label": "ownerToContractIndex",
        "offset": 0,
        "slot": "0",
        "type": "t_mapping(t_address,t_uint256)"
      },
      {
        "astId": 97,
        "contract": "contracts/EscrowFactory.sol:EscrowFactory",
        "label": "escrowArray",
        "offset": 0,
        "slot": "1",
        "type": "t_array(t_contract(Escrow)73)dyn_storage"
      }
    ],
    "types": {
      "t_address": {
        "encoding": "inplace",
        "label": "address",
        "numberOfBytes": "20"
      },
      "t_array(t_contract(Escrow)73)dyn_storage": {
        "base": "t_contract(Escrow)73",
        "encoding": "dynamic_array",
        "label": "contract Escrow[]",
        "numberOfBytes": "32"
      },
      "t_contract(Escrow)73": {
        "encoding": "inplace",
        "label": "contract Escrow",
        "numberOfBytes": "20"
      },
      "t_mapping(t_address,t_uint256)": {
        "encoding": "mapping",
        "key": "t_address",
        "label": "mapping(address => uint256)",
        "numberOfBytes": "32",
        "value": "t_uint256"
      },
      "t_uint256": {
        "encoding": "inplace",
        "label": "uint256",
        "numberOfBytes": "32"
      }
    }
  }
}