{
  "address": "0x5FbDB2315678afecb367f032d93F642f64180aa3",
  "abi": [
    {
      "inputs": [
        {
          "internalType": "address",
          "name": "escrow",
          "type": "address"
        }
      ],
      "name": "EscrowFactory__AlreadyApproved",
      "type": "error"
    },
    {
      "inputs": [
        {
          "internalType": "address",
          "name": "caller",
          "type": "address"
        }
      ],
      "name": "EscrowFactory__NotAnArbiterOfContract",
      "type": "error"
    },
    {
      "stateMutability": "payable",
      "type": "fallback"
    },
    {
      "inputs": [
        {
          "internalType": "uint256",
          "name": "index",
          "type": "uint256"
        }
      ],
      "name": "approve",
      "outputs": [],
      "stateMutability": "nonpayable",
      "type": "function"
    },
    {
      "inputs": [
        {
          "internalType": "address",
          "name": "_beneficiary",
          "type": "address"
        },
        {
          "internalType": "address",
          "name": "_arbiter",
          "type": "address"
        }
      ],
      "name": "createNewEscrowContract",
      "outputs": [],
      "stateMutability": "payable",
      "type": "function"
    },
    {
      "inputs": [
        {
          "internalType": "uint256",
          "name": "",
          "type": "uint256"
        }
      ],
      "name": "escrowArray",
      "outputs": [
        {
          "internalType": "contract Escrow",
          "name": "",
          "type": "address"
        }
      ],
      "stateMutability": "view",
      "type": "function"
    },
    {
      "inputs": [],
      "name": "getEscrowContracts",
      "outputs": [
        {
          "internalType": "contract Escrow[]",
          "name": "",
          "type": "address[]"
        }
      ],
      "stateMutability": "view",
      "type": "function"
    },
    {
      "stateMutability": "payable",
      "type": "receive"
    }
  ],
  "transactionHash": "0x6b73c726b93eb1c389faaeb8e18c7500e776231b083a2633e12bf4dcd0c5927d",
  "args": [],
  "numDeployments": 1,
  "solcInputHash": "0de54f6613fc65c0f7dc496a51c7c52f",
  "bytecode": "0x608060405234801561001057600080fd5b50610e78806100206000396000f3fe6080604052600436106100435760003560e01c806329e94cb81461004c5780632f3b703f1461006857806392376e4414610093578063b759f954146100d05761004a565b3661004a57005b005b61006660048036038101906100619190610511565b6100f9565b005b34801561007457600080fd5b5061007d61019f565b60405161008a919061065f565b60405180910390f35b34801561009f57600080fd5b506100ba60048036038101906100b591906106b7565b61022d565b6040516100c791906106f3565b60405180910390f35b3480156100dc57600080fd5b506100f760048036038101906100f291906106b7565b61026c565b005b60003433848460405161010b906104a1565b6101179392919061071d565b6040518091039082f0905080158015610134573d6000803e3d6000fd5b5090506000819080600181540180825580915050600190039060005260206000200160009091909190916101000a81548173ffffffffffffffffffffffffffffffffffffffff021916908373ffffffffffffffffffffffffffffffffffffffff160217905550505050565b6060600080548060200260200160405190810160405280929190818152602001828054801561022357602002820191906000526020600020905b8160009054906101000a900473ffffffffffffffffffffffffffffffffffffffff1673ffffffffffffffffffffffffffffffffffffffff16815260200190600101908083116101d9575b5050505050905090565b6000818154811061023d57600080fd5b906000526020600020016000915054906101000a900473ffffffffffffffffffffffffffffffffffffffff1681565b600080828154811061028157610280610754565b5b9060005260206000200160009054906101000a900473ffffffffffffffffffffffffffffffffffffffff1690503373ffffffffffffffffffffffffffffffffffffffff168173ffffffffffffffffffffffffffffffffffffffff1663fe25e00a6040518163ffffffff1660e01b8152600401602060405180830381865afa158015610310573d6000803e3d6000fd5b505050506040513d601f19601f820116820180604052508101906103349190610798565b73ffffffffffffffffffffffffffffffffffffffff161461038c57336040517fd2ad64b600000000000000000000000000000000000000000000000000000000815260040161038391906107c5565b60405180910390fd5b8073ffffffffffffffffffffffffffffffffffffffff166328f371aa6040518163ffffffff1660e01b8152600401602060405180830381865afa1580156103d7573d6000803e3d6000fd5b505050506040513d601f19601f820116820180604052508101906103fb9190610818565b1561043d57806040517f74c3146c00000000000000000000000000000000000000000000000000000000815260040161043491906107c5565b60405180910390fd5b8073ffffffffffffffffffffffffffffffffffffffff166312424e3f6040518163ffffffff1660e01b8152600401600060405180830381600087803b15801561048557600080fd5b505af1158015610499573d6000803e3d6000fd5b505050505050565b6105fd8061084683390190565b600080fd5b600073ffffffffffffffffffffffffffffffffffffffff82169050919050565b60006104de826104b3565b9050919050565b6104ee816104d3565b81146104f957600080fd5b50565b60008135905061050b816104e5565b92915050565b60008060408385031215610528576105276104ae565b5b6000610536858286016104fc565b9250506020610547858286016104fc565b9150509250929050565b600081519050919050565b600082825260208201905092915050565b6000819050602082019050919050565b6000819050919050565b60006105a261059d610598846104b3565b61057d565b6104b3565b9050919050565b60006105b482610587565b9050919050565b60006105c6826105a9565b9050919050565b6105d6816105bb565b82525050565b60006105e883836105cd565b60208301905092915050565b6000602082019050919050565b600061060c82610551565b610616818561055c565b93506106218361056d565b8060005b8381101561065257815161063988826105dc565b9750610644836105f4565b925050600181019050610625565b5085935050505092915050565b600060208201905081810360008301526106798184610601565b905092915050565b6000819050919050565b61069481610681565b811461069f57600080fd5b50565b6000813590506106b18161068b565b92915050565b6000602082840312156106cd576106cc6104ae565b5b60006106db848285016106a2565b91505092915050565b6106ed816105bb565b82525050565b600060208201905061070860008301846106e4565b92915050565b610717816104d3565b82525050565b6000606082019050610732600083018661070e565b61073f602083018561070e565b61074c604083018461070e565b949350505050565b7f4e487b7100000000000000000000000000000000000000000000000000000000600052603260045260246000fd5b600081519050610792816104e5565b92915050565b6000602082840312156107ae576107ad6104ae565b5b60006107bc84828501610783565b91505092915050565b60006020820190506107da600083018461070e565b92915050565b60008115159050919050565b6107f5816107e0565b811461080057600080fd5b50565b600081519050610812816107ec565b92915050565b60006020828403121561082e5761082d6104ae565b5b600061083c84828501610803565b9150509291505056fe60806040526040516105fd3803806105fd83398181016040528101906100259190610152565b82600260006101000a81548173ffffffffffffffffffffffffffffffffffffffff021916908373ffffffffffffffffffffffffffffffffffffffff16021790555081600160006101000a81548173ffffffffffffffffffffffffffffffffffffffff021916908373ffffffffffffffffffffffffffffffffffffffff160217905550806000806101000a81548173ffffffffffffffffffffffffffffffffffffffff021916908373ffffffffffffffffffffffffffffffffffffffff1602179055505050506101a5565b600080fd5b600073ffffffffffffffffffffffffffffffffffffffff82169050919050565b600061011f826100f4565b9050919050565b61012f81610114565b811461013a57600080fd5b50565b60008151905061014c81610126565b92915050565b60008060006060848603121561016b5761016a6100ef565b5b60006101798682870161013d565b935050602061018a8682870161013d565b925050604061019b8682870161013d565b9150509250925092565b610449806101b46000396000f3fe608060405234801561001057600080fd5b50600436106100575760003560e01c806312424e3f1461005c57806328f371aa1461006657806338af3eed14610084578063c7c4ff46146100a2578063fe25e00a146100c0575b600080fd5b6100646100de565b005b61006e610207565b60405161007b91906102a5565b60405180910390f35b61008c61021a565b6040516100999190610301565b60405180910390f35b6100aa610240565b6040516100b79190610301565b60405180910390f35b6100c8610266565b6040516100d59190610301565b60405180910390f35b60004790506000600160009054906101000a900473ffffffffffffffffffffffffffffffffffffffff1673ffffffffffffffffffffffffffffffffffffffff168260405161012b9061034d565b60006040518083038185875af1925050503d8060008114610168576040519150601f19603f3d011682016040523d82523d6000602084013e61016d565b606091505b50509050806101b1576040517f08c379a00000000000000000000000000000000000000000000000000000000081526004016101a8906103bf565b60405180910390fd5b7f3ad93af63cb7967b23e4fb500b7d7d28b07516325dcf341f88bebf959d82c1cb826040516101e091906103f8565b60405180910390a16001600260146101000a81548160ff0219169083151502179055505050565b600260149054906101000a900460ff1681565b600160009054906101000a900473ffffffffffffffffffffffffffffffffffffffff1681565b600260009054906101000a900473ffffffffffffffffffffffffffffffffffffffff1681565b60008054906101000a900473ffffffffffffffffffffffffffffffffffffffff1681565b60008115159050919050565b61029f8161028a565b82525050565b60006020820190506102ba6000830184610296565b92915050565b600073ffffffffffffffffffffffffffffffffffffffff82169050919050565b60006102eb826102c0565b9050919050565b6102fb816102e0565b82525050565b600060208201905061031660008301846102f2565b92915050565b600081905092915050565b50565b600061033760008361031c565b915061034282610327565b600082019050919050565b60006103588261032a565b9150819050919050565b600082825260208201905092915050565b7f4661696c656420746f2073656e64204574686572000000000000000000000000600082015250565b60006103a9601483610362565b91506103b482610373565b602082019050919050565b600060208201905081810360008301526103d88161039c565b9050919050565b6000819050919050565b6103f2816103df565b82525050565b600060208201905061040d60008301846103e9565b9291505056fea2646970667358221220d3d33c8ebe58981c8dfba6b65247fe22de880f899b346136b6825984b946872064736f6c63430008110033a2646970667358221220d8ca2c8f17f74b27b0d6ab530a65cebd4ac1f0d2b73df3113ed1d27c10d6e46c64736f6c63430008110033",
  "devdoc": {
    "kind": "dev",
    "methods": {},
    "version": 1
  },
  "userdoc": {
    "kind": "user",
    "methods": {},
    "version": 1
  },
  "storageLayout": {
    "storage": [
      {
        "astId": 89,
        "contract": "contracts/EscrowFactory.sol:EscrowFactory",
        "label": "escrowArray",
        "offset": 0,
        "slot": "0",
        "type": "t_array(t_contract(Escrow)73)dyn_storage"
      }
    ],
    "types": {
      "t_array(t_contract(Escrow)73)dyn_storage": {
        "base": "t_contract(Escrow)73",
        "encoding": "dynamic_array",
        "label": "contract Escrow[]",
        "numberOfBytes": "32"
      },
      "t_contract(Escrow)73": {
        "encoding": "inplace",
        "label": "contract Escrow",
        "numberOfBytes": "20"
      }
    }
  }
}